{
  "contractName": "KirsCode",
  "abi": [
    {
      "constant": true,
      "inputs": [
        {
          "name": "",
          "type": "uint256"
        }
      ],
      "name": "user",
      "outputs": [
        {
          "name": "",
          "type": "address"
        }
      ],
      "payable": false,
      "stateMutability": "view",
      "type": "function"
    },
    {
      "constant": true,
      "inputs": [
        {
          "name": "",
          "type": "uint256"
        }
      ],
      "name": "dataKIR",
      "outputs": [
        {
          "name": "checker",
          "type": "string"
        },
        {
          "name": "id",
          "type": "uint256"
        },
        {
          "name": "NOPOL",
          "type": "string"
        },
        {
          "name": "status",
          "type": "string"
        },
        {
          "name": "cek",
          "type": "string"
        }
      ],
      "payable": false,
      "stateMutability": "view",
      "type": "function"
    },
    {
      "inputs": [],
      "payable": false,
      "stateMutability": "nonpayable",
      "type": "constructor"
    },
    {
      "constant": false,
      "inputs": [
        {
          "name": "_NOPOL",
          "type": "string"
        },
        {
          "name": "_status",
          "type": "string"
        },
        {
          "name": "_cek",
          "type": "string"
        },
        {
          "name": "_checker",
          "type": "string"
        }
      ],
      "name": "AddKIR",
      "outputs": [
        {
          "name": "",
          "type": "string"
        }
      ],
      "payable": false,
      "stateMutability": "nonpayable",
      "type": "function"
    },
    {
      "constant": true,
      "inputs": [],
      "name": "getAllKir",
      "outputs": [
        {
          "components": [
            {
              "name": "checker",
              "type": "string"
            },
            {
              "name": "id",
              "type": "uint256"
            },
            {
              "name": "NOPOL",
              "type": "string"
            },
            {
              "name": "status",
              "type": "string"
            },
            {
              "name": "cek",
              "type": "string"
            }
          ],
          "name": "",
          "type": "tuple[]"
        }
      ],
      "payable": false,
      "stateMutability": "view",
      "type": "function"
    },
    {
      "constant": true,
      "inputs": [
        {
          "name": "_NOPOL",
          "type": "string"
        }
      ],
      "name": "getKirByNopol",
      "outputs": [
        {
          "components": [
            {
              "name": "checker",
              "type": "string"
            },
            {
              "name": "id",
              "type": "uint256"
            },
            {
              "name": "NOPOL",
              "type": "string"
            },
            {
              "name": "status",
              "type": "string"
            },
            {
              "name": "cek",
              "type": "string"
            }
          ],
          "name": "",
          "type": "tuple"
        }
      ],
      "payable": false,
      "stateMutability": "view",
      "type": "function"
    },
    {
      "constant": false,
      "inputs": [
        {
          "name": "_NOPOL",
          "type": "string"
        }
      ],
      "name": "deleteKirByNopol",
      "outputs": [
        {
          "name": "",
          "type": "string"
        }
      ],
      "payable": false,
      "stateMutability": "nonpayable",
      "type": "function"
    },
    {
      "constant": true,
      "inputs": [],
      "name": "getLength",
      "outputs": [
        {
          "name": "",
          "type": "uint256"
        }
      ],
      "payable": false,
      "stateMutability": "view",
      "type": "function"
    },
    {
      "constant": false,
      "inputs": [
        {
          "name": "_NOPOL",
          "type": "string"
        }
      ],
      "name": "RemoveKirByNopol",
      "outputs": [
        {
          "name": "",
          "type": "string"
        }
      ],
      "payable": false,
      "stateMutability": "nonpayable",
      "type": "function"
    },
    {
      "constant": false,
      "inputs": [
        {
          "name": "_NOPOL",
          "type": "string"
        },
        {
          "name": "_status",
          "type": "string"
        },
        {
          "name": "_cek",
          "type": "string"
        }
      ],
      "name": "UpdateKirByNopol",
      "outputs": [
        {
          "name": "",
          "type": "string"
        }
      ],
      "payable": false,
      "stateMutability": "nonpayable",
      "type": "function"
    }
  ],
  "bytecode": "0x6080604052600160105534801561001557600080fd5b50611fe5806100256000396000f3fe608060405260043610610093576000357c01000000000000000000000000000000000000000000000000000000009004806313609d171461009857806314d5b159146100d557806336ef077414610112578063553275be1461013d5780636a11d8ec1461017a578063be1c766b146101bb578063d2cf3c53146101e6578063f3aa8d6514610223578063f4a39b5d14610260575b600080fd5b3480156100a457600080fd5b506100bf60048036036100ba91908101906119a1565b61029d565b6040516100cc9190611db0565b60405180910390f35b3480156100e157600080fd5b506100fc60048036036100f791908101906119a1565b6104bb565b6040516101099190611e41565b60405180910390f35b34801561011e57600080fd5b506101276108c4565b6040516101349190611d8e565b60405180910390f35b34801561014957600080fd5b50610164600480360361015f9190810190611b3c565b610bb6565b6040516101719190611d73565b60405180910390f35b34801561018657600080fd5b506101a1600480360361019c9190810190611b3c565b610beb565b6040516101b2959493929190611dd2565b60405180910390f35b3480156101c757600080fd5b506101d0610e90565b6040516101dd9190611e63565b60405180910390f35b3480156101f257600080fd5b5061020d600480360361020891908101906119e2565b610e9d565b60405161021a9190611db0565b60405180910390f35b34801561022f57600080fd5b5061024a60048036036102459190810190611a79565b61128d565b6040516102579190611db0565b60405180910390f35b34801561026c57600080fd5b50610287600480360361028291908101906119a1565b6113c9565b6040516102949190611db0565b60405180910390f35b606060008090505b6001601180549050038111151561047c57826040516020018082805190602001908083835b6020831015156102ef57805182526020820191506020810190506020830392506102ca565b6001836020036101000a0380198251168184511680821785525050505050509050019150506040516020818303038152906040528051906020012060118281548110151561033957fe5b906000526020600020906005020160020160405160200180828054600181600116156101000203166002900480156103a85780601f106103865761010080835404028352918201916103a8565b820191906000526020600020905b815481529060010190602001808311610394575b505091505060405160208183030381529060405280519060200120141561046f576011818154811015156103d857fe5b9060005260206000209060050201600080820160006103f79190611713565b600182016000905560028201600061040f9190611713565b60038201600061041f9190611713565b60048201600061042f9190611713565b50506040805190810160405280601581526020017f6461746120626572686173696c206469686170757300000000000000000000008152509150506104b6565b80806001019150506102a5565b506040805190810160405280601481526020017f6461746120746964616b20646974656d756b616e00000000000000000000000081525090505b919050565b6104c361175b565b60008090505b600160118054905003811115156108bd57826040516020018082805190602001908083835b60208310151561051357805182526020820191506020810190506020830392506104ee565b6001836020036101000a0380198251168184511680821785525050505050509050019150506040516020818303038152906040528051906020012060118281548110151561055d57fe5b906000526020600020906005020160020160405160200180828054600181600116156101000203166002900480156105cc5780601f106105aa5761010080835404028352918201916105cc565b820191906000526020600020905b8154815290600101906020018083116105b8575b50509150506040516020818303038152906040528051906020012014156108b0576011818154811015156105fc57fe5b906000526020600020906005020160a06040519081016040529081600082018054600181600116156101000203166002900480601f0160208091040260200160405190810160405280929190818152602001828054600181600116156101000203166002900480156106af5780601f10610684576101008083540402835291602001916106af565b820191906000526020600020905b81548152906001019060200180831161069257829003601f168201915b5050505050815260200160018201548152602001600282018054600181600116156101000203166002900480601f01602080910402602001604051908101604052809291908181526020018280546001816001161561010002031660029004801561075b5780601f106107305761010080835404028352916020019161075b565b820191906000526020600020905b81548152906001019060200180831161073e57829003601f168201915b50505050508152602001600382018054600181600116156101000203166002900480601f0160208091040260200160405190810160405280929190818152602001828054600181600116156101000203166002900480156107fd5780601f106107d2576101008083540402835291602001916107fd565b820191906000526020600020905b8154815290600101906020018083116107e057829003601f168201915b50505050508152602001600482018054600181600116156101000203166002900480601f01602080910402602001604051908101604052809291908181526020018280546001816001161561010002031660029004801561089f5780601f106108745761010080835404028352916020019161089f565b820191906000526020600020905b81548152906001019060200180831161088257829003601f168201915b5050505050815250509150506108bf565b80806001019150506104c9565b505b919050565b60606011805480602002602001604051908101604052809291908181526020016000905b82821015610bad578382906000526020600020906005020160a06040519081016040529081600082018054600181600116156101000203166002900480601f0160208091040260200160405190810160405280929190818152602001828054600181600116156101000203166002900480156109a55780601f1061097a576101008083540402835291602001916109a5565b820191906000526020600020905b81548152906001019060200180831161098857829003601f168201915b5050505050815260200160018201548152602001600282018054600181600116156101000203166002900480601f016020809104026020016040519081016040528092919081815260200182805460018160011615610100020316600290048015610a515780601f10610a2657610100808354040283529160200191610a51565b820191906000526020600020905b815481529060010190602001808311610a3457829003601f168201915b50505050508152602001600382018054600181600116156101000203166002900480601f016020809104026020016040519081016040528092919081815260200182805460018160011615610100020316600290048015610af35780601f10610ac857610100808354040283529160200191610af3565b820191906000526020600020905b815481529060010190602001808311610ad657829003601f168201915b50505050508152602001600482018054600181600116156101000203166002900480601f016020809104026020016040519081016040528092919081815260200182805460018160011615610100020316600290048015610b955780601f10610b6a57610100808354040283529160200191610b95565b820191906000526020600020905b815481529060010190602001808311610b7857829003601f168201915b505050505081525050815260200190600101906108e8565b50505050905090565b600081601081101515610bc557fe5b016000915054906101000a900473ffffffffffffffffffffffffffffffffffffffff1681565b601181815481101515610bfa57fe5b9060005260206000209060050201600091509050806000018054600181600116156101000203166002900480601f016020809104026020016040519081016040528092919081815260200182805460018160011615610100020316600290048015610ca65780601f10610c7b57610100808354040283529160200191610ca6565b820191906000526020600020905b815481529060010190602001808311610c8957829003601f168201915b505050505090806001015490806002018054600181600116156101000203166002900480601f016020809104026020016040519081016040528092919081815260200182805460018160011615610100020316600290048015610d4a5780601f10610d1f57610100808354040283529160200191610d4a565b820191906000526020600020905b815481529060010190602001808311610d2d57829003601f168201915b505050505090806003018054600181600116156101000203166002900480601f016020809104026020016040519081016040528092919081815260200182805460018160011615610100020316600290048015610de85780601f10610dbd57610100808354040283529160200191610de8565b820191906000526020600020905b815481529060010190602001808311610dcb57829003601f168201915b505050505090806004018054600181600116156101000203166002900480601f016020809104026020016040519081016040528092919081815260200182805460018160011615610100020316600290048015610e865780601f10610e5b57610100808354040283529160200191610e86565b820191906000526020600020905b815481529060010190602001808311610e6957829003601f168201915b5050505050905085565b6000601180549050905090565b6060806040805190810160405280600581526020017f416b746966000000000000000000000000000000000000000000000000000000815250905060008090505b6001601180549050038111151561124b57856040516020018082805190602001908083835b602083101515610f285780518252602082019150602081019050602083039250610f03565b6001836020036101000a03801982511681845116808217855250505050505090500191505060405160208183030381529060405280519060200120601182815481101515610f7257fe5b90600052602060002090600502016002016040516020018082805460018160011615610100020316600290048015610fe15780601f10610fbf576101008083540402835291820191610fe1565b820191906000526020600020905b815481529060010190602001808311610fcd575b505091505060405160208183030381529060405280519060200120141561123e57846040516020018082805190602001908083835b60208310151561103b5780518252602082019150602081019050602083039250611016565b6001836020036101000a03801982511681845116808217855250505050505090500191505060405160208183030381529060405280519060200120826040516020018082805190602001908083835b6020831015156110af578051825260208201915060208101905060208303925061108a565b6001836020036101000a03801982511681845116808217855250505050505090500191505060405160208183030381529060405280519060200120141561115f576040805190810160405280600581526020017f416b74696600000000000000000000000000000000000000000000000000000081525060118281548110151561113557fe5b9060005260206000209060050201600301908051906020019061115992919061178b565b506111ca565b6040805190810160405280600b81526020017f546964616b20416b7469660000000000000000000000000000000000000000008152506011828154811015156111a457fe5b906000526020600020906005020160030190805190602001906111c892919061178b565b505b836011828154811015156111da57fe5b906000526020600020906005020160040190805190602001906111fe92919061178b565b506040805190810160405280601681526020017f4461746120626572686173696c2064697570646174650000000000000000000081525092505050611286565b8080600101915050610ede565b506040805190810160405280601481526020017f4461746120746964616b20646974656d756b616e0000000000000000000000008152509150505b9392505050565b606061129761175b565b60105481602001818152505085816040018190525084816060018190525083816080018190525082816000018190525060118190806001815401808255809150509060018203906000526020600020906005020160009091929091909150600082015181600001908051906020019061131192919061180b565b5060208201518160010155604082015181600201908051906020019061133892919061180b565b50606082015181600301908051906020019061135592919061180b565b50608082015181600401908051906020019061137292919061180b565b505050506010600081548092919060010191905055506040805190810160405280601181526020017f426572686173696c20646973696d70616e000000000000000000000000000000815250915050949350505050565b60606000806000905060008090505b6001601180549050038111151561151157846040516020018082805190602001908083835b60208310151561142257805182526020820191506020810190506020830392506113fd565b6001836020036101000a0380198251168184511680821785525050505050509050019150506040516020818303038152906040528051906020012060118281548110151561146c57fe5b906000526020600020906005020160020160405160200180828054600181600116156101000203166002900480156114db5780601f106114b95761010080835404028352918201916114db565b820191906000526020600020905b8154815290600101906020018083116114c7575b505091505060405160208183030381529060405280519060200120141561150457809250600191505b80806001019150506113d8565b5080156116d35760008290505b6001601180549050038110156116255760116001820181548110151561154057fe5b906000526020600020906005020160118281548110151561155d57fe5b90600052602060002090600502016000820181600001908054600181600116156101000203166002900461159292919061188b565b5060018201548160010155600282018160020190805460018160011615610100020316600290046115c492919061188b565b50600382018160030190805460018160011615610100020316600290046115ec92919061188b565b506004820181600401908054600181600116156101000203166002900461161492919061188b565b50905050808060010191505061151e565b506011805480151561163357fe5b6001900381819060005260206000209060050201600080820160006116589190611713565b60018201600090556002820160006116709190611713565b6003820160006116809190611713565b6004820160006116909190611713565b505090556040805190810160405280601581526020017f4461746120626572686173696c206469686170757300000000000000000000008152509250505061170e565b6040805190810160405280601481526020017f4461746120746964616b20646974656d756b616e000000000000000000000000815250925050505b919050565b50805460018160011615610100020316600290046000825580601f106117395750611758565b601f0160209004906000526020600020908101906117579190611912565b5b50565b60a06040519081016040528060608152602001600081526020016060815260200160608152602001606081525090565b828054600181600116156101000203166002900490600052602060002090601f016020900481019282601f106117cc57805160ff19168380011785556117fa565b828001600101855582156117fa579182015b828111156117f95782518255916020019190600101906117de565b5b5090506118079190611912565b5090565b828054600181600116156101000203166002900490600052602060002090601f016020900481019282601f1061184c57805160ff191683800117855561187a565b8280016001018555821561187a579182015b8281111561187957825182559160200191906001019061185e565b5b5090506118879190611912565b5090565b828054600181600116156101000203166002900490600052602060002090601f016020900481019282601f106118c45780548555611901565b8280016001018555821561190157600052602060002091601f016020900482015b828111156119005782548255916001019190600101906118e5565b5b50905061190e9190611912565b5090565b61193491905b80821115611930576000816000905550600101611918565b5090565b90565b600082601f830112151561194a57600080fd5b813561195d61195882611eab565b611e7e565b9150808252602083016020830185838301111561197957600080fd5b611984838284611f58565b50505092915050565b60006119998235611f4e565b905092915050565b6000602082840312156119b357600080fd5b600082013567ffffffffffffffff8111156119cd57600080fd5b6119d984828501611937565b91505092915050565b6000806000606084860312156119f757600080fd5b600084013567ffffffffffffffff811115611a1157600080fd5b611a1d86828701611937565b935050602084013567ffffffffffffffff811115611a3a57600080fd5b611a4686828701611937565b925050604084013567ffffffffffffffff811115611a6357600080fd5b611a6f86828701611937565b9150509250925092565b60008060008060808587031215611a8f57600080fd5b600085013567ffffffffffffffff811115611aa957600080fd5b611ab587828801611937565b945050602085013567ffffffffffffffff811115611ad257600080fd5b611ade87828801611937565b935050604085013567ffffffffffffffff811115611afb57600080fd5b611b0787828801611937565b925050606085013567ffffffffffffffff811115611b2457600080fd5b611b3087828801611937565b91505092959194509250565b600060208284031215611b4e57600080fd5b6000611b5c8482850161198d565b91505092915050565b611b6e81611f12565b82525050565b6000611b7f82611ee4565b80845260208401935083602082028501611b9885611ed7565b60005b84811015611bd1578383038852611bb3838351611cd9565b9250611bbe82611f05565b9150602088019750600181019050611b9b565b508196508694505050505092915050565b6000611bed82611efa565b808452611c01816020860160208601611f67565b611c0a81611f9a565b602085010191505092915050565b6000611c2382611eef565b808452611c37816020860160208601611f67565b611c4081611f9a565b602085010191505092915050565b600060a0830160008301518482036000860152611c6b8282611c18565b9150506020830151611c806020860182611d64565b5060408301518482036040860152611c988282611c18565b91505060608301518482036060860152611cb28282611c18565b91505060808301518482036080860152611ccc8282611c18565b9150508091505092915050565b600060a0830160008301518482036000860152611cf68282611c18565b9150506020830151611d0b6020860182611d64565b5060408301518482036040860152611d238282611c18565b91505060608301518482036060860152611d3d8282611c18565b91505060808301518482036080860152611d578282611c18565b9150508091505092915050565b611d6d81611f44565b82525050565b6000602082019050611d886000830184611b65565b92915050565b60006020820190508181036000830152611da88184611b74565b905092915050565b60006020820190508181036000830152611dca8184611be2565b905092915050565b600060a0820190508181036000830152611dec8188611c18565b9050611dfb6020830187611d64565b8181036040830152611e0d8186611c18565b90508181036060830152611e218185611c18565b90508181036080830152611e358184611c18565b90509695505050505050565b60006020820190508181036000830152611e5b8184611c4e565b905092915050565b6000602082019050611e786000830184611d64565b92915050565b6000604051905081810181811067ffffffffffffffff82111715611ea157600080fd5b8060405250919050565b600067ffffffffffffffff821115611ec257600080fd5b601f19601f8301169050602081019050919050565b6000602082019050919050565b600081519050919050565b600081519050919050565b600081519050919050565b6000602082019050919050565b6000611f1d82611f24565b9050919050565b600073ffffffffffffffffffffffffffffffffffffffff82169050919050565b6000819050919050565b6000819050919050565b82818337600083830152505050565b60005b83811015611f85578082015181840152602081019050611f6a565b83811115611f94576000848401525b50505050565b6000601f19601f830116905091905056fea265627a7a72305820d96b461d115f0db816f7d80876265783e691ac1e4453bb7ec9a38e78c76aa6c06c6578706572696d656e74616cf50037",
  "source": "// SPDX-License-Identifier: MIT\npragma solidity >=0.4.22 <0.9.0;\npragma experimental ABIEncoderV2;\n\ncontract KirsCode {\n    constructor() public {}\n\n    address[16] public user;\n    struct KIR {\n        string checker;\n        uint id;\n        string NOPOL;\n        string status;\n        string cek;\n    }\n\n    uint idIncrement = 1;\n    KIR[] public dataKIR;\n\n    function AddKIR(\n        string memory _NOPOL,\n        string memory _status,\n        string memory _cek,\n        string memory _checker\n    ) public returns (string memory) {\n        KIR memory tmp;\n        // tmp.checker[idIncrement] = msg.sender;\n        tmp.id = idIncrement;\n        tmp.NOPOL = _NOPOL;\n        tmp.status = _status;\n        tmp.cek = _cek;\n        tmp.checker = _checker;\n\n        dataKIR.push(tmp);\n        idIncrement++;\n\n        return \"Berhasil disimpan\";\n    }\n\n    function getAllKir() public view returns (KIR[] memory) {\n        return dataKIR;\n    }\n\n    function getKirByNopol(\n        string memory _NOPOL\n    ) public view returns (KIR memory) {\n        for (uint i = 0; i <= dataKIR.length - 1; i++) {\n            if (\n                keccak256(abi.encodePacked(dataKIR[i].NOPOL)) ==\n                keccak256(abi.encodePacked(_NOPOL))\n            ) {\n                return dataKIR[i];\n            }\n        }\n    }\n\n    function deleteKirByNopol(\n        string memory _NOPOL\n    ) public returns (string memory) {\n        for (uint i = 0; i <= dataKIR.length - 1; i++) {\n            if (\n                keccak256(abi.encodePacked(dataKIR[i].NOPOL)) ==\n                keccak256(abi.encodePacked(_NOPOL))\n            ) {\n                delete dataKIR[i];\n                return \"data berhasil dihapus\";\n            }\n        }\n        return \"data tidak ditemukan\";\n    }\n\n    function getLength() public view returns (uint) {\n        return dataKIR.length;\n    }\n\n    function RemoveKirByNopol(\n        string memory _NOPOL\n    ) public returns (string memory) {\n        // KIR memory temp = getKirByNopol(_NOPOL);\n        uint temp;\n        bool get = false;\n        // require(_id < dataKIR.length, \"index out of bound\");\n        for (uint i = 0; i <= dataKIR.length - 1; i++) {\n            if (\n                keccak256(abi.encodePacked(dataKIR[i].NOPOL)) ==\n                keccak256(abi.encodePacked(_NOPOL))\n            ) {\n                temp = i;\n                get = true;\n            }\n        }\n        if (get) {\n            for (uint x = temp; x < dataKIR.length - 1; x++) {\n                dataKIR[x] = dataKIR[x + 1];\n            }\n            dataKIR.pop();\n            return \"Data berhasil dihapus\";\n        } else {\n            return \"Data tidak ditemukan\";\n        }\n    }\n\n    function UpdateKirByNopol(\n        string memory _NOPOL,\n        string memory _status,\n        string memory _cek\n    )\n        public\n        returns (\n            // bool _status\n            string memory\n        )\n    {\n        string memory temp = \"Aktif\";\n        for (uint i = 0; i <= dataKIR.length - 1; i++) {\n            if (\n                keccak256(abi.encodePacked(dataKIR[i].NOPOL)) ==\n                keccak256(abi.encodePacked(_NOPOL))\n            ) {\n                if (\n                    keccak256(abi.encodePacked(temp)) ==\n                    keccak256(abi.encodePacked(_status))\n                ) {\n                    dataKIR[i].status = \"Aktif\";\n                } else {\n                    dataKIR[i].status = \"Tidak Aktif\";\n                }\n                dataKIR[i].cek = _cek;\n                return \"Data berhasil diupdate\";\n            }\n        }\n        return \"Data tidak ditemukan\";\n    }\n}\n",
  "sourcePath": "D:\\KIRsCode\\blockchain_kir\\contracts\\KirsCode.sol",
  "compiler": {
    "name": "solc",
    "version": "0.5.1+commit.c8a2cb62.Emscripten.clang"
  },
  "schemaVersion": "3.4.16",
  "updatedAt": "2024-05-24T18:43:11.058Z",
  "networkType": "ethereum",
  "devdoc": {
    "methods": {}
  },
  "userdoc": {
    "methods": {}
  }
}